S00F0000446F6F725F76312E737265637B
S11300000C9434000C943E000C943E000C94850037
S11300100C943E000C943E000C943E000C943E0064
S11300200C943E000C943E000C943E000C943E0054
S11300300C943E000C943E000C943E000C943E0044
S11300400C943E000C943E000C943E000C943E0034
S11300500C943E000C943E000C943E000C943E0024
S11300600C943E000C943E0011241FBECFEFD8E048
S1130070DEBFCDBF0E9443000C94AA000C94000084
S11300800E94540008950E944000789483B7817FB1
S1130090846083BF83B7816083BF8895FECF219836
S11300A029980E947D0008958FEE8093640084B1A6
S11300B014B885B19FEF95B987B1807887B988B1B5
S11300C08F6788B98AB11AB88BB19BB920982098E8
S11300D0289A259825982D9A3C9A44983D9A4598B3
S11300E0539A5B9843E060E881E690E00E94A300A5
S11300F013BE15BE0E944F00089581E080936800EE
S113010082E080936B0080E008951F920F920FB6F7
S11301100F921124199903C0189B0AC00DC01D9990
S113012004C0449A45981D9BFCCF4498459806C04A
S11301304498459A189BFCCF449845980F900FBE5D
S11301400F901F9018952FB7F894FC01608340839B
S10B01502FBF0895F894FFCFBE
S9030000FC
